{
  "contractName": "PIAICBCCToken",
  "abi": [
    {
      "inputs": [],
      "stateMutability": "nonpayable",
      "type": "constructor"
    },
    {
      "anonymous": false,
      "inputs": [
        {
          "indexed": true,
          "internalType": "address",
          "name": "owner",
          "type": "address"
        },
        {
          "indexed": true,
          "internalType": "address",
          "name": "spender",
          "type": "address"
        },
        {
          "indexed": false,
          "internalType": "uint256",
          "name": "value",
          "type": "uint256"
        }
      ],
      "name": "Approval",
      "type": "event"
    },
    {
      "anonymous": false,
      "inputs": [
        {
          "indexed": true,
          "internalType": "address",
          "name": "from",
          "type": "address"
        },
        {
          "indexed": true,
          "internalType": "address",
          "name": "to",
          "type": "address"
        },
        {
          "indexed": false,
          "internalType": "uint256",
          "name": "value",
          "type": "uint256"
        }
      ],
      "name": "Transfer",
      "type": "event"
    },
    {
      "inputs": [],
      "name": "decimals",
      "outputs": [
        {
          "internalType": "uint256",
          "name": "",
          "type": "uint256"
        }
      ],
      "stateMutability": "view",
      "type": "function",
      "constant": true
    },
    {
      "inputs": [],
      "name": "name",
      "outputs": [
        {
          "internalType": "string",
          "name": "",
          "type": "string"
        }
      ],
      "stateMutability": "view",
      "type": "function",
      "constant": true
    },
    {
      "inputs": [],
      "name": "owner",
      "outputs": [
        {
          "internalType": "address",
          "name": "",
          "type": "address"
        }
      ],
      "stateMutability": "view",
      "type": "function",
      "constant": true
    },
    {
      "inputs": [],
      "name": "symbol",
      "outputs": [
        {
          "internalType": "string",
          "name": "",
          "type": "string"
        }
      ],
      "stateMutability": "view",
      "type": "function",
      "constant": true
    },
    {
      "inputs": [],
      "name": "totalSupply",
      "outputs": [
        {
          "internalType": "uint256",
          "name": "",
          "type": "uint256"
        }
      ],
      "stateMutability": "view",
      "type": "function",
      "constant": true
    },
    {
      "inputs": [
        {
          "internalType": "address",
          "name": "account",
          "type": "address"
        }
      ],
      "name": "balanceOf",
      "outputs": [
        {
          "internalType": "uint256",
          "name": "",
          "type": "uint256"
        }
      ],
      "stateMutability": "view",
      "type": "function",
      "constant": true
    },
    {
      "inputs": [
        {
          "internalType": "address",
          "name": "recipient",
          "type": "address"
        },
        {
          "internalType": "uint256",
          "name": "amount",
          "type": "uint256"
        }
      ],
      "name": "transfer",
      "outputs": [
        {
          "internalType": "bool",
          "name": "",
          "type": "bool"
        }
      ],
      "stateMutability": "nonpayable",
      "type": "function"
    },
    {
      "inputs": [
        {
          "internalType": "address",
          "name": "tokenOwner",
          "type": "address"
        },
        {
          "internalType": "address",
          "name": "spender",
          "type": "address"
        }
      ],
      "name": "allowance",
      "outputs": [
        {
          "internalType": "uint256",
          "name": "",
          "type": "uint256"
        }
      ],
      "stateMutability": "view",
      "type": "function",
      "constant": true
    },
    {
      "inputs": [
        {
          "internalType": "address",
          "name": "spender",
          "type": "address"
        },
        {
          "internalType": "uint256",
          "name": "amount",
          "type": "uint256"
        }
      ],
      "name": "approve",
      "outputs": [
        {
          "internalType": "bool",
          "name": "",
          "type": "bool"
        }
      ],
      "stateMutability": "nonpayable",
      "type": "function"
    },
    {
      "inputs": [
        {
          "internalType": "address",
          "name": "tokenOwner",
          "type": "address"
        },
        {
          "internalType": "address",
          "name": "recipient",
          "type": "address"
        },
        {
          "internalType": "uint256",
          "name": "amount",
          "type": "uint256"
        }
      ],
      "name": "transferFrom",
      "outputs": [
        {
          "internalType": "bool",
          "name": "",
          "type": "bool"
        }
      ],
      "stateMutability": "nonpayable",
      "type": "function"
    }
  ],
  "bytecode": "0x60806040523480156200001157600080fd5b506040518060400160405280601781526020017f50494149432d4243432042617463682d3320546f6b656e000000000000000000815250600490805190602001906200005f92919062000216565b506040518060400160405280600481526020017f424343330000000000000000000000000000000000000000000000000000000081525060059080519060200190620000ad92919062000216565b50601260068190555033600360006101000a81548173ffffffffffffffffffffffffffffffffffffffff021916908373ffffffffffffffffffffffffffffffffffffffff160217905550600654600a6200010891906200034f565b620f42406200011891906200048c565b600281905550600254600080600360009054906101000a900473ffffffffffffffffffffffffffffffffffffffff1673ffffffffffffffffffffffffffffffffffffffff1673ffffffffffffffffffffffffffffffffffffffff16815260200190815260200160002081905550600360009054906101000a900473ffffffffffffffffffffffffffffffffffffffff1673ffffffffffffffffffffffffffffffffffffffff163073ffffffffffffffffffffffffffffffffffffffff167fddf252ad1be2c89b69c2b068fc378daa952ba7f163c4a11628f55a4df523b3ef600254604051620002089190620002d7565b60405180910390a362000598565b8280546200022490620004f7565b90600052602060002090601f01602090048101928262000248576000855562000294565b82601f106200026357805160ff191683800117855562000294565b8280016001018555821562000294579182015b828111156200029357825182559160200191906001019062000276565b5b509050620002a39190620002a7565b5090565b5b80821115620002c2576000816000905550600101620002a8565b5090565b620002d181620004ed565b82525050565b6000602082019050620002ee6000830184620002c6565b92915050565b6000808291508390505b600185111562000346578086048111156200031e576200031d6200052d565b5b60018516156200032e5780820291505b80810290506200033e856200058b565b9450620002fe565b94509492505050565b60006200035c82620004ed565b91506200036983620004ed565b9250620003987fffffffffffffffffffffffffffffffffffffffffffffffffffffffffffffffff8484620003a0565b905092915050565b600082620003b2576001905062000485565b81620003c2576000905062000485565b8160018114620003db5760028114620003e6576200041c565b600191505062000485565b60ff841115620003fb57620003fa6200052d565b5b8360020a9150848211156200041557620004146200052d565b5b5062000485565b5060208310610133831016604e8410600b8410161715620004565782820a90508381111562000450576200044f6200052d565b5b62000485565b620004658484846001620002f4565b925090508184048111156200047f576200047e6200052d565b5b81810290505b9392505050565b60006200049982620004ed565b9150620004a683620004ed565b9250817fffffffffffffffffffffffffffffffffffffffffffffffffffffffffffffffff0483118215151615620004e257620004e16200052d565b5b828202905092915050565b6000819050919050565b600060028204905060018216806200051057607f821691505b602082108114156200052757620005266200055c565b5b50919050565b7f4e487b7100000000000000000000000000000000000000000000000000000000600052601160045260246000fd5b7f4e487b7100000000000000000000000000000000000000000000000000000000600052602260045260246000fd5b60008160011c9050919050565b61139380620005a86000396000f3fe608060405234801561001057600080fd5b506004361061009e5760003560e01c806370a082311161006657806370a082311461015d5780638da5cb5b1461018d57806395d89b41146101ab578063a9059cbb146101c9578063dd62ed3e146101f95761009e565b806306fdde03146100a3578063095ea7b3146100c157806318160ddd146100f157806323b872dd1461010f578063313ce5671461013f575b600080fd5b6100ab610229565b6040516100b89190611070565b60405180910390f35b6100db60048036038101906100d69190610d34565b6102b7565b6040516100e89190611055565b60405180910390f35b6100f961048e565b6040516101069190611152565b60405180910390f35b61012960048036038101906101249190610ce5565b610498565b6040516101369190611055565b60405180910390f35b6101476107df565b6040516101549190611152565b60405180910390f35b61017760048036038101906101729190610c80565b6107e5565b6040516101849190611152565b60405180910390f35b61019561082d565b6040516101a2919061103a565b60405180910390f35b6101b3610853565b6040516101c09190611070565b60405180910390f35b6101e360048036038101906101de9190610d34565b6108e1565b6040516101f09190611055565b60405180910390f35b610213600480360381019061020e9190610ca9565b610bcf565b6040516102209190611152565b60405180910390f35b600480546102369061128e565b80601f01602080910402602001604051908101604052809291908181526020018280546102629061128e565b80156102af5780601f10610284576101008083540402835291602001916102af565b820191906000526020600020905b81548152906001019060200180831161029257829003601f168201915b505050505081565b600080339050600073ffffffffffffffffffffffffffffffffffffffff168173ffffffffffffffffffffffffffffffffffffffff16141561032d576040517f08c379a0000000000000000000000000000000000000000000000000000000008152600401610324906110b2565b60405180910390fd5b600073ffffffffffffffffffffffffffffffffffffffff168473ffffffffffffffffffffffffffffffffffffffff16141561039d576040517f08c379a000000000000000000000000000000000000000000000000000000000815260040161039490611132565b60405180910390fd5b82600160008373ffffffffffffffffffffffffffffffffffffffff1673ffffffffffffffffffffffffffffffffffffffff16815260200190815260200160002060008673ffffffffffffffffffffffffffffffffffffffff1673ffffffffffffffffffffffffffffffffffffffff168152602001908152602001600020819055508373ffffffffffffffffffffffffffffffffffffffff168173ffffffffffffffffffffffffffffffffffffffff167f8c5be1e5ebec7d5bd14f71427d1e84f3dd0314c0f7b2291e5b200ac8c7c3b9258560405161047b9190611152565b60405180910390a3600191505092915050565b6000600254905090565b6000803390506000600160008773ffffffffffffffffffffffffffffffffffffffff1673ffffffffffffffffffffffffffffffffffffffff16815260200190815260200160002060008373ffffffffffffffffffffffffffffffffffffffff1673ffffffffffffffffffffffffffffffffffffffff168152602001908152602001600020549050838111610561576040517f08c379a000000000000000000000000000000000000000000000000000000000815260040161055890611112565b60405180910390fd5b838161056d91906111df565b9050836000808873ffffffffffffffffffffffffffffffffffffffff1673ffffffffffffffffffffffffffffffffffffffff168152602001908152602001600020546105b991906111df565b6000808873ffffffffffffffffffffffffffffffffffffffff1673ffffffffffffffffffffffffffffffffffffffff16815260200190815260200160002081905550836000808773ffffffffffffffffffffffffffffffffffffffff1673ffffffffffffffffffffffffffffffffffffffff168152602001908152602001600020546106459190611189565b6000808773ffffffffffffffffffffffffffffffffffffffff1673ffffffffffffffffffffffffffffffffffffffff168152602001908152602001600020819055508473ffffffffffffffffffffffffffffffffffffffff168673ffffffffffffffffffffffffffffffffffffffff167fddf252ad1be2c89b69c2b068fc378daa952ba7f163c4a11628f55a4df523b3ef866040516106e49190611152565b60405180910390a380600160008873ffffffffffffffffffffffffffffffffffffffff1673ffffffffffffffffffffffffffffffffffffffff16815260200190815260200160002060008473ffffffffffffffffffffffffffffffffffffffff1673ffffffffffffffffffffffffffffffffffffffff168152602001908152602001600020819055508173ffffffffffffffffffffffffffffffffffffffff168673ffffffffffffffffffffffffffffffffffffffff167f8c5be1e5ebec7d5bd14f71427d1e84f3dd0314c0f7b2291e5b200ac8c7c3b925866040516107ca9190611152565b60405180910390a36001925050509392505050565b60065481565b60008060008373ffffffffffffffffffffffffffffffffffffffff1673ffffffffffffffffffffffffffffffffffffffff168152602001908152602001600020549050919050565b600360009054906101000a900473ffffffffffffffffffffffffffffffffffffffff1681565b600580546108609061128e565b80601f016020809104026020016040519081016040528092919081815260200182805461088c9061128e565b80156108d95780601f106108ae576101008083540402835291602001916108d9565b820191906000526020600020905b8154815290600101906020018083116108bc57829003601f168201915b505050505081565b600080339050600073ffffffffffffffffffffffffffffffffffffffff168173ffffffffffffffffffffffffffffffffffffffff161415610957576040517f08c379a000000000000000000000000000000000000000000000000000000000815260040161094e906110f2565b60405180910390fd5b600073ffffffffffffffffffffffffffffffffffffffff168473ffffffffffffffffffffffffffffffffffffffff1614156109c7576040517f08c379a00000000000000000000000000000000000000000000000000000000081526004016109be906110d2565b60405180910390fd5b826000808373ffffffffffffffffffffffffffffffffffffffff1673ffffffffffffffffffffffffffffffffffffffff1681526020019081526020016000205411610a47576040517f08c379a0000000000000000000000000000000000000000000000000000000008152600401610a3e90611092565b60405180910390fd5b826000808373ffffffffffffffffffffffffffffffffffffffff1673ffffffffffffffffffffffffffffffffffffffff16815260200190815260200160002054610a9191906111df565b6000808373ffffffffffffffffffffffffffffffffffffffff1673ffffffffffffffffffffffffffffffffffffffff16815260200190815260200160002081905550826000808673ffffffffffffffffffffffffffffffffffffffff1673ffffffffffffffffffffffffffffffffffffffff16815260200190815260200160002054610b1d9190611189565b6000808673ffffffffffffffffffffffffffffffffffffffff1673ffffffffffffffffffffffffffffffffffffffff168152602001908152602001600020819055508373ffffffffffffffffffffffffffffffffffffffff168173ffffffffffffffffffffffffffffffffffffffff167fddf252ad1be2c89b69c2b068fc378daa952ba7f163c4a11628f55a4df523b3ef85604051610bbc9190611152565b60405180910390a3600191505092915050565b6000600160008473ffffffffffffffffffffffffffffffffffffffff1673ffffffffffffffffffffffffffffffffffffffff16815260200190815260200160002060008373ffffffffffffffffffffffffffffffffffffffff1673ffffffffffffffffffffffffffffffffffffffff16815260200190815260200160002054905092915050565b600081359050610c658161132f565b92915050565b600081359050610c7a81611346565b92915050565b600060208284031215610c9257600080fd5b6000610ca084828501610c56565b91505092915050565b60008060408385031215610cbc57600080fd5b6000610cca85828601610c56565b9250506020610cdb85828601610c56565b9150509250929050565b600080600060608486031215610cfa57600080fd5b6000610d0886828701610c56565b9350506020610d1986828701610c56565b9250506040610d2a86828701610c6b565b9150509250925092565b60008060408385031215610d4757600080fd5b6000610d5585828601610c56565b9250506020610d6685828601610c6b565b9150509250929050565b610d7981611213565b82525050565b610d8881611225565b82525050565b6000610d998261116d565b610da38185611178565b9350610db381856020860161125b565b610dbc8161131e565b840191505092915050565b6000610dd4602583611178565b91507f424343313a207472616e7366657220616d6f756e74206578636565647320626160008301527f6c616e63650000000000000000000000000000000000000000000000000000006020830152604082019050919050565b6000610e3a602383611178565b91507f424343313a20617070726f76652066726f6d20746865207a65726f206164647260008301527f65737300000000000000000000000000000000000000000000000000000000006020830152604082019050919050565b6000610ea0602283611178565b91507f424343313a207472616e7366657220746f20746865207a65726f20616464726560008301527f73730000000000000000000000000000000000000000000000000000000000006020830152604082019050919050565b6000610f06602483611178565b91507f424343313a207472616e736665722066726f6d20746865207a65726f2061646460008301527f72657373000000000000000000000000000000000000000000000000000000006020830152604082019050919050565b6000610f6c602783611178565b91507f424343313a207472616e7366657220616d6f756e74206578636565647320616c60008301527f6c6f77616e6365000000000000000000000000000000000000000000000000006020830152604082019050919050565b6000610fd2602183611178565b91507f424343313a20617070726f766520746f20746865207a65726f2061646472657360008301527f73000000000000000000000000000000000000000000000000000000000000006020830152604082019050919050565b61103481611251565b82525050565b600060208201905061104f6000830184610d70565b92915050565b600060208201905061106a6000830184610d7f565b92915050565b6000602082019050818103600083015261108a8184610d8e565b905092915050565b600060208201905081810360008301526110ab81610dc7565b9050919050565b600060208201905081810360008301526110cb81610e2d565b9050919050565b600060208201905081810360008301526110eb81610e93565b9050919050565b6000602082019050818103600083015261110b81610ef9565b9050919050565b6000602082019050818103600083015261112b81610f5f565b9050919050565b6000602082019050818103600083015261114b81610fc5565b9050919050565b6000602082019050611167600083018461102b565b92915050565b600081519050919050565b600082825260208201905092915050565b600061119482611251565b915061119f83611251565b9250827fffffffffffffffffffffffffffffffffffffffffffffffffffffffffffffffff038211156111d4576111d36112c0565b5b828201905092915050565b60006111ea82611251565b91506111f583611251565b925082821015611208576112076112c0565b5b828203905092915050565b600061121e82611231565b9050919050565b60008115159050919050565b600073ffffffffffffffffffffffffffffffffffffffff82169050919050565b6000819050919050565b60005b8381101561127957808201518184015260208101905061125e565b83811115611288576000848401525b50505050565b600060028204905060018216806112a657607f821691505b602082108114156112ba576112b96112ef565b5b50919050565b7f4e487b7100000000000000000000000000000000000000000000000000000000600052601160045260246000fd5b7f4e487b7100000000000000000000000000000000000000000000000000000000600052602260045260246000fd5b6000601f19601f8301169050919050565b61133881611213565b811461134357600080fd5b50565b61134f81611251565b811461135a57600080fd5b5056fea2646970667358221220af7fc2881d11729725502ebe27ba56cdf74dec0cd1c133d59c716b7bfaa2629d64736f6c63430008000033",
  "immutableReferences": {},
  "source": "pragma solidity ^0.8.0;\r\ninterface IERC20 {\r\n    /**\r\n     * @dev Returns the amount of tokens in existence.\r\n     */\r\n    function totalSupply() external view returns (uint256);\r\n\r\n    /**\r\n     * @dev Returns the amount of tokens owned by `account`.\r\n     */\r\n    function balanceOf(address account) external view returns (uint256);\r\n\r\n    /**\r\n     * @dev Moves `amount` tokens from the caller's account to `recipient`.\r\n     *\r\n     * Returns a boolean value indicating whether the operation succeeded.\r\n     *\r\n     * Emits a {Transfer} event.\r\n     */\r\n    function transfer(address recipient, uint256 amount) external returns (bool);\r\n\r\n    /**\r\n     * @dev Returns the remaining number of tokens that `spender` will be\r\n     * allowed to spend on behalf of `owner` through {transferFrom}. This is\r\n     * zero by default.\r\n     *\r\n     * This value changes when {approve} or {transferFrom} are called.\r\n     */\r\n    function allowance(address owner, address spender) external view returns (uint256);\r\n\r\n    /**\r\n     * @dev Sets `amount` as the allowance of `spender` over the caller's tokens.\r\n     *\r\n     * Returns a boolean value indicating whether the operation succeeded.\r\n     *\r\n     * IMPORTANT: Beware that changing an allowance with this method brings the risk\r\n     * that someone may use both the old and the new allowance by unfortunate\r\n     * transaction ordering. One possible solution to mitigate this race\r\n     * condition is to first reduce the spender's allowance to 0 and set the\r\n     * desired value afterwards:\r\n     * https://github.com/ethereum/EIPs/issues/20#issuecomment-263524729\r\n     *\r\n     * Emits an {Approval} event.\r\n     */\r\n    function approve(address spender, uint256 amount) external returns (bool);\r\n\r\n    /**\r\n     * @dev Moves `amount` tokens from `sender` to `recipient` using the\r\n     * allowance mechanism. `amount` is then deducted from the caller's\r\n     * allowance.\r\n     *\r\n     * Returns a boolean value indicating whether the operation succeeded.\r\n     *\r\n     * Emits a {Transfer} event.\r\n     */\r\n    function transferFrom(address sender, address recipient, uint256 amount) external returns (bool);\r\n\r\n    /**\r\n     * @dev Emitted when `value` tokens are moved from one account (`from`) to\r\n     * another (`to`).\r\n     *\r\n     * Note that `value` may be zero.\r\n     */\r\n    event Transfer(address indexed from, address indexed to, uint256 value);\r\n\r\n    /**\r\n     * @dev Emitted when the allowance of a `spender` for an `owner` is set by\r\n     * a call to {approve}. `value` is the new allowance.\r\n     */\r\n    event Approval(address indexed owner, address indexed spender, uint256 value);\r\n}\r\ncontract PIAICBCCToken is IERC20{\r\n    //mapping to hold balances against EOA accounts\r\n    mapping (address => uint256) private _balances;\r\n\r\n    //mapping to hold approved allowance of token to certain address\r\n    //       Owner               Spender    allowance\r\n    mapping (address => mapping (address => uint256)) private _allowances;\r\n    //       my                 mudasir     100\r\n    //                          waqas       100\r\n    //                          Jawed       100\r\n\r\n    //the amount of tokens in existence\r\n    uint256 private _totalSupply;\r\n\r\n    //owner\r\n    address public owner;\r\n    \r\n    string public name;\r\n    string public symbol;\r\n    uint public decimals;\r\n\r\n    constructor () public {\r\n        name = \"PIAIC-BCC Batch-3 Token\";\r\n        symbol = \"BCC3\";\r\n        decimals = 18;  //1  - 1000 PKR 1 = 100 Paisa 2 decimal\r\n        owner = msg.sender;\r\n        \r\n        //1 million tokens to be generated\r\n        _totalSupply = 1000000 * 10**decimals; //exponenctial farmola\r\n        //transfer total supply to owner\r\n        _balances[owner] = _totalSupply;\r\n        \r\n        //fire an event on transfer of tokens\r\n        emit Transfer(address(this),owner,_totalSupply);\r\n     }\r\n        // function mint(address receiver,uint amount) public returns(uint){\r\n        //      _balances[receiver] += amount;\r\n        //      _totalSupply +=amount;\r\n        // }\r\n    /**\r\n     * @dev See {IERC20-totalSupply}.\r\n     */\r\n    function totalSupply() public view override returns (uint256) {\r\n        return _totalSupply;\r\n    }\r\n\r\n    /**\r\n     * @dev See {IERC20-balanceOf}.\r\n     */\r\n    function balanceOf(address account) public view override returns (uint256) {\r\n        return _balances[account];\r\n    }\r\n\r\n    /**\r\n     * @dev See {IERC20-transfer}.\r\n     *\r\n     * Requirements:\r\n     *\r\n     * - `recipient` cannot be the zero address.\r\n     * - the caller must have a balance of at least `amount`.\r\n     */\r\n    function transfer(address recipient, uint256 amount) public virtual override returns (bool) {\r\n        address sender = msg.sender;\r\n        require(sender != address(0), \"BCC1: transfer from the zero address\");\r\n        require(recipient != address(0), \"BCC1: transfer to the zero address\");\r\n        require(_balances[sender] > amount,\"BCC1: transfer amount exceeds balance\");\r\n\r\n        //decrease the balance of token sender account\r\n        _balances[sender] = _balances[sender] - amount;\r\n        \r\n        //increase the balance of token recipient account\r\n        _balances[recipient] = _balances[recipient] + amount;\r\n\r\n        emit Transfer(sender, recipient, amount);\r\n        return true;\r\n    }\r\n\r\n    /**\r\n     * @dev See {IERC20-allowance}.\r\n     */\r\n    function allowance(address tokenOwner, address spender) public view virtual override returns (uint256) {\r\n        return _allowances[tokenOwner][spender]; //return allowed amount\r\n    }\r\n\r\n    /**\r\n     * @dev See {IERC20-approve}.\r\n     *\r\n     * Requirements:\r\n     *\r\n     * - `spender` cannot be the zero address.\r\n     */\r\n    function approve(address spender, uint256 amount) public virtual override returns (bool) {\r\n        address tokenOwner = msg.sender;\r\n        require(tokenOwner != address(0), \"BCC1: approve from the zero address\");\r\n        require(spender != address(0), \"BCC1: approve to the zero address\");\r\n        \r\n        _allowances[tokenOwner][spender] = amount;\r\n        \r\n        emit Approval(tokenOwner, spender, amount);\r\n        return true;\r\n    }\r\n\r\n    /**\r\n     * @dev See {IERC20-transferFrom}.\r\n     *\r\n     * Emits an {Approval} event indicating the updated allowance. This is not\r\n     * required by the EIP. See the note at the beginning of {ERC20};\r\n     *\r\n     * Requirements:\r\n     * - `sender` and `recipient` cannot be the zero address.\r\n     * - `sender` must have a balance of at least `amount`.\r\n     * - the caller must have allowance for ``sender``'s tokens of at least\r\n     * `amount`.\r\n     */\r\n    function transferFrom(address tokenOwner, address recipient, uint256 amount) public virtual override returns (bool) {\r\n        address spender = msg.sender;\r\n        uint256 _allowance = _allowances[tokenOwner][spender]; //how much allowed\r\n        require(_allowance > amount, \"BCC1: transfer amount exceeds allowance\");\r\n        \r\n        //deducting allowance\r\n        _allowance = _allowance - amount;\r\n        \r\n        //--- start transfer execution -- \r\n        \r\n        //owner decrease balance\r\n        _balances[tokenOwner] =_balances[tokenOwner] - amount; \r\n        \r\n        //transfer token to recipient;\r\n        _balances[recipient] = _balances[recipient] + amount;\r\n        \r\n        emit Transfer(tokenOwner, recipient, amount);\r\n        //-- end transfer execution--\r\n        \r\n        //decrease the approval amount;\r\n        _allowances[tokenOwner][spender] = _allowance;\r\n        \r\n        emit Approval(tokenOwner, spender, amount);\r\n        \r\n        return true;\r\n    }\r\n    \r\n\r\n}",
  "sourcePath": "F:/q3 classes/truffleERC20/contracts/PIAICBCCToken.sol",
  "compiler": {
    "name": "solc",
    "version": "0.8.0+commit.c7dfd78e.Emscripten.clang"
  },
  "schemaVersion": "3.4.1",
  "updatedAt": "2021-08-15T07:38:30.410Z",
  "networkType": "ethereum",
  "devdoc": {
    "kind": "dev",
    "methods": {
      "allowance(address,address)": {
        "details": "See {IERC20-allowance}."
      },
      "approve(address,uint256)": {
        "details": "See {IERC20-approve}. Requirements: - `spender` cannot be the zero address."
      },
      "balanceOf(address)": {
        "details": "See {IERC20-balanceOf}."
      },
      "totalSupply()": {
        "details": "See {IERC20-totalSupply}."
      },
      "transfer(address,uint256)": {
        "details": "See {IERC20-transfer}. Requirements: - `recipient` cannot be the zero address. - the caller must have a balance of at least `amount`."
      },
      "transferFrom(address,address,uint256)": {
        "details": "See {IERC20-transferFrom}. Emits an {Approval} event indicating the updated allowance. This is not required by the EIP. See the note at the beginning of {ERC20}; Requirements: - `sender` and `recipient` cannot be the zero address. - `sender` must have a balance of at least `amount`. - the caller must have allowance for ``sender``'s tokens of at least `amount`."
      }
    },
    "version": 1
  },
  "userdoc": {
    "kind": "user",
    "methods": {},
    "version": 1
  }
}